:101085003E5149453E00427F40004261514946215B
:1010950041454B311814127F1027454545393C4AC7
:1010A5004949300171090503364949493606494917
:0210B500291EF2
:10100D0001260F013500060B00000000000006113F
:10101D00C3FF6666FFC30618C3C35A5AC3C3083657
:10102D000000000000000000011700063FFFFFFF59
:0F103D00FFFFFF010A00010900010800013E004A
:0410E8007F147E00F3
:1010EC00E4FDFCC3ED9FEC9E5015E4FBFA0BBB003A
:0F10FC00010AEB64704A70F50DBD00010C80E431
:01110B0022C1
:09116200EE24B8FF12116B7F406E
:0D116B008FB0C2A0C2A1D2A200C2A2002279
:1010B700120D61EF75F005A42485F582E43410F56F
:1010C70083EBFF3395E0FEE5822FF582E5833EF55E
:0410D70083E493FF1C
:0D10DB008FB0D2A0C2A1D2A200C2A20022FA
:10112B00D2A3D2A4D2A51210E87F3E1211667FB8CB
:0D113B0012116B7FC012116B7F3F02116B10
:10104D00E4FEC2A3D2A4121162E4FDE4FF1210DB90
:10105D000DBD40F7D2A3C2A4121162E4FDE4FF124C
:10106D0010DB0DBD40F70EBE08D8D2A3D2A47FB8B9
:08107D0012116B7F4002116BA0
:10110C00C28100002084091210E82084037F34225D
:0F111C002086091210E82086037F36227F0022EA
:10098E007B00E54B25E02427F8E6FF3395E0F55193
:10099E008F52AF0AEF3395E0FEEF2420F554E43E7C
:0609AE00F5537D017C0001
:0A09B4008B4C8A4D894E8C4F8D50FC
:1009BE008554567F03C374409550FDE4954FFCEF6C
:1009CE00FB3395E0FAED2BFDEC3AFCC3E5549DECC0
:1009DE006480F8E5536480984011E5549440E553E3
:1009EE00648094805005755640802AC3E554944027
:1009FE00E55364809480401DEB2440FFE43AFEC32F
:100A0E00E5549FEE6480F8E5536480985007C374F4
:100A1E00409550F556AF56EF3395E0FEE5502FFF5B
:100A2E00E54F3EFED3EF9440EE648094805046D264
:100A3E00A3C2A4E55224B8FF12116BE5562440FF61
:100A4E0012116BE4F555AF55EF3395E0FEC3EF95FC
:100A5E0050E54F6480F8EE6480985065AB4CAA4D1B
:100A6E00A94EEF3395E08F82F583120D34FF1210ED
:100A7E00DB055580D1C3E556648094C04043C2A3C4
:100A8E00D2A4E55224B8FF12116BAF5612116BE4CB
:100A9E00F555AF55EF3395E0FEC3EF9550E54F6436
:100AAE0080F8EE6480985019AB4CAA4DA94EEF33E6
:100ABE0095E08F82F583120D34FF1210DB05558001
:050ACE00D1D2A3D2A467
:010AD3002200
:100DEC001526E5266003020E90120FC07C007D0FC5
:100DFC00120D61ED2432F526E4F54AE54A25E0258D
:100E0C00E02420F8E67071120FC07C007D28120DD2
:100E1C0061ED2428FFE54A25E025E0241EF8EFF6D5
:100E2C00C39428500BE54A25E025E0241EF87628CB
:100E3C00E54A25E025E0241EF8E62406FFE433FE0F
:100E4C00D3EF9456EE64809480400BE54A25E02560
:100E5C00E0241EF87650E54A25E025E0241FF876BC
:100E6C0001E54A25E025E02420F87601E54A25E055
:100E7C0025E02421F8E4F622054AE54AC394025001
:040E8C0003020E0748
:010E9000223F
:100E9100E4F54AE54A25E025E02420F8E67003025E
:100EA1000F27E54A25E025E02421F806E6C394074B
:100EB1004074E54A25E025E02421F8E4F6FB7A00B8
:100EC100790BE54A25E025E0241FF8E6755100F588
:100ED10052E54A25E025E0241EF8E6755300F55455
:100EE1007D067C001209B4E54A25E025E0241FF8BF
:100EF10006E6FFD3940750237B007A0079187551D9
:100F0100008F52E54A25E025E0241EF8E6755300DE
:100F1100F5547D067C001209B4800BE54A25E025D5
:100F2100E02420F8E4F6054AE54AC394025003029E
:020F31000E941C
:010F3300229B
:10114800E4FFEF04FEEF25E02427F8A606EF25E0EC
:091158002428F876010FBF07E915
:01116100226B
:100C0E00754AFFE4F54B0517E517C3941950030217
:100C1E000D33E4F517F54BE54B25E02428F8E66097
:100C2E002A7A00790B12098E7B007A00790BE54B3C
:100C3E0025E02427F8E6FF3395E0F5518F52AF09F2
:100C4E00EF3395E0FEEF24581209AA054BC3E54B8E
:100C5E006480948740C1E4F54BE54B25E02427F8EA
:100C6E0006E6D3648094874039E54B25E02427F8C7
:100C7E007601120FC07C007D15120D61ED24F6F584
:100C8E0008120FC07C007D15120D61ED24F6F53EA5
:100C9E00E5082420FFE53E2458C39F643860038591
:100CAE00083E054BC3E54B6480948740ACC3E50812
:100CBE006480F8E50A6480985004050A800FD3E535
:100CCE00086480F8E50A6480984002150AC3E53E80
:100CDE006480F8E50964809850040509800FD3E517
:100CEE003E6480F8E50964809840021509E4F54BEE
:100CFE007A00793F12098E7B007A00793FE54B2509
:100D0E00E02427F8E6FF3395E0F5518F52AF09EF57
:100D1E003395E0FEEF24581209AA054BC3E54B6448
:050D2E0080948740CB1A
:010D3300229D
:040AD4008E4A8F4B6C
:100AD800754E07E4FFEF25E025E02420F8E6605D89
:100AE800EF25E025E0241FF8E6FEFDAB4EEB33953D
:100AF800E0FAC3ED9BEA6480F8748098403FEED337
:100B080094075039EF25E025E0241EF8E6FD7C0027
:100B18002406FBEC33FAC3EB954BE54A6480F8EA0C
:100B28006480984018E54B2406FBE4354AFAD3ED77
:100B38009BEA6480F87480985003020C000FEF64FD
:100B4800027092754C07C3E54E6480F8E54C6480EA
:100B5800985003020C0AE50A2426FFE5092452F5F9
:100B68004DEFFD3395E0FCC3E54B9DEC6480F8E563
:100B78004A648098401DE54B2406FDE4354AFCE5AF
:100B88004DFB3395E0FAD3ED9BEA6480F8EC648082
:0E0B98009840028063C3E54C64809487505FF0
:100BA600E50AFD3395E0FCED2426F550E43CF54FCF
:100BB600E509FD3395E0FCED2452F552E43CF55190
:100BC600EF3395E0FEC3EF9550FFEE954FFE121101
:100BD60078D3EF9402EE64809480501EAF4DEF33CD
:100BE60095E0FEC3EF9552FFEE9551FE121178D3B4
:0F0BF600EF9402EE6480948040057E007F012220
:080C0500154C020B4EE4FEFF4A
:010C0D0022C4
:1008000075453F754606900000E4F9F547F548F553
:100810004912112B12104D12110CBF340F746425A4
:1008200082F582E43583F58379018003E970097FDD
:10083000647E001210EC80DFAF82AE8312100212D1
:1008400011487B007A007911E546FD3395E0FC758F
:100850005100755207AF45EF3395E0F5538F5412B1
:1008600009B40549E5497002054812110C8F47E5A6
:100870004760737B007A00790B755100755207AFA2
:1008800045EF3395E0F5538F547D067C001209B493
:10089000E547B4340DD3E545648094A6400474FA6A
:1008A0008010E547B4360FC3E545648094D2500606
:1008B00074062545F5457B007A0079117551007560
:1008C0005207AF45EF3395E0F5538F547D067C001A
:1008D0001209B47F32800812110CEF60097F0A7E82
:1008E000001210EC80F1AE48AF497C007D14120D6F
:1008F00061ED4C7073C2A3D2A47FB812116B7F6DEF
:1009000012116BFBAE48AF497C007D0A120D617C71
:10091000007D641210B70BBB05EAE4FBAE48AF499B
:100920007C007D0A120D617C007D64120D617E00E9
:100930007F0ACFCDCFCECCCE1210B70BBB05DDE4F6
:10094000FBAE48AF497C007D0A120D617C007D64DE
:10095000120D617E007F0ACFCDCFCECCCE120D61BD
:10096000ED1210BB0BBB05D9120C0E120DEC120EC2
:1009700091AF45EF3395E0FE120AD4EF4E600512B9
:0E098000104D80FE7F1E7E001210EC020862F9
:03000000020F34B8
:0C0F3400787FE4F6D8FD75815A020F7B2F
:100D3400BB010CE58229F582E5833AF583E0225074
:100D440006E92582F8E622BBFE06E92582F8E222BE
:0D0D5400E58229F582E5833AF583E49322D8
:100D6100C2D5EC30E709B2D5E4C39DFDE49CFCEEAD
:100D710030E715B2D5E4C39FFFE49EFE120D97C381
:100D8100E49DFDE49CFC8003120D9730D507C3E47C
:060D91009FFFE49EFE221C
:100FC000AC57AD58AE59AF5A7810EC4D4E4F700437
:100FD0007CA57DA5C3EC13FCED13FDEE13FEEF1312
:100FE000FF5010EC64CCFCED644CFDEE644EFEEF63
:100FF00064CEFFD8DF8C578D588E598F5AEE547FB0
:0D100000FE228E578F5874A5F559F55A221F
:0C117800EE30E707C3E49FFFE49EFE2278
:100F4000020800E493A3F8E493A34003F68001F2BF
:100F500008DFF48029E493A3F85407240CC8C333B2
:100F6000C4540F4420C8834004F456800146F6DF81
:100F7000E4800B010204081020408090100DE47EF4
:100F8000019360BCA3FF543F30E509541FFEE49376
:100F9000A360010ECF54C025E060A840B8E493A33D
:100FA000FAE493A3F8E493A3C8C582C8CAC583CA68
:100FB000F0A3C8C582C8CAC583CADFE9DEE780BE20
:01104C0000A3
:100D9700BC000BBE0029EF8DF084FFADF022E4CC40
:100DA700F875F008EF2FFFEE33FEEC33FCEE9DEC09
:100DB700984005FCEE9DFE0FD5F0E9E4CEFD22ED4F
:100DC700F8F5F0EE8420D21CFEADF075F008EF2F99
:100DD700FFED33FD4007985006D5F0F222C398FD8A
:050DE7000FD5F0EA2227
:00000001FF
